:100000000C945C000C9479000C9479000C947900A9
:100010000C9479000C9479000C9479000C9479007C
:100020000C9479000C9479000C9479000C9479006C
:100030000C9479000C9479000C9479000C9479005C
:100040000C94D1010C9479000C9479000C947900F3
:100050000C9479000C9479000C9479000C9479003C
:100060000C9479000C947900000000070002010054
:100070000003040600000000000000000102040864
:100080001020408001020408102001020408102002
:10009000040404040404040402020202020203032E
:1000A0000303030300000000250028002B000000CC
:1000B0000000240027002A0011241FBECFEFD8E043
:1000C000DEBFCDBF11E0A0E0B1E0E0EEF4E002C0A1
:1000D00005900D92A836B107D9F711E0A8E6B1E076
:1000E00001C01D92A137B107E1F70E9461020C9493
:1000F0006E020C940000CF93DF93C4E0D1E061E086
:1001000088810E949B0185E090E00E941B0260E0D4
:100110008881DF91CF910C949B018FEF8AB961E0C8
:10012000809106010E94620161E0809104010E94B9
:1001300062010C947B00CF93DF93C6E0D1E061E0D5
:1001400088810E949B0185E090E00E941B0260E094
:100150008881DF91CF910C949B016F927F928F9257
:100160009F92AF92BF92CF92DF92EF92FF920F9346
:100170001F93CF93DF935C014B0100E010E038E068
:10018000C32ED12C612C712C7601E01AF10A8091DA
:1001900002019091030197FD079623E095958795BD
:1001A0002A95E1F7681679066CF5C0E0D0E0C83012
:1001B000D105F4F4F401EC0FFD1F208130E00E2C8A
:1001C00002C0359527950A94E2F7F501EC0FFD1F63
:1001D0008081002E01C0880F0A94EAF7820F8BB944
:1001E000809100019091010105970E941B021BB8AC
:1001F0000E949B002196CA30D105C9F68FEF681A7C
:10020000780AC5CF0F5F1F4F0830110509F0BACF2C
:10021000DF91CF911F910F91FF90EF90DF90CF90E2
:10022000BF90AF909F908F907F906F9008950F93A5
:100230001F93CF93DF9388E091E0C0E0D0E08C0182
:10024000085F1F4FCB30D10511F0B80104C068E042
:1002500071E080E691E00E94AD000E947B00219653
:10026000C801CC30D10559F7DF91CF911F910F9183
:100270000895833081F028F4813099F08230A1F024
:1002800008958630A9F08730B9F08430D1F4809198
:1002900080008F7D03C0809180008F7780938000E5
:1002A000089584B58F7702C084B58F7D84BD08958D
:1002B0008091B0008F7703C08091B0008F7D8093D4
:1002C000B0000895CF93DF9390E0FC01E458FF4F16
:1002D0002491FC01E057FF4F8491882349F190E07D
:1002E000880F991FFC01E255FF4FA591B4918C55E1
:1002F0009F4FFC01C591D4919FB7611108C0F8943C
:100300008C91209582238C93888182230AC062304D
:1003100051F4F8948C91322F309583238C938881FB
:10032000822B888304C0F8948C91822B8C939FBF7E
:10033000DF91CF9108950F931F93CF93DF931F9277
:10034000CDB7DEB7282F30E0F901E859FF4F84918F
:10035000F901E458FF4F1491F901E057FF4F049160
:100360000023C9F0882321F069830E943901698143
:10037000E02FF0E0EE0FFF1FEC55FF4FA591B49179
:100380009FB7F8948C91611103C01095812301C02F
:10039000812B8C939FBF0F90DF91CF911F910F9175
:1003A00008951F920F920FB60F9211242F933F932F
:1003B0008F939F93AF93BF938091690190916A014E
:1003C000A0916B01B0916C013091680123E0230F83
:1003D0002D3720F40196A11DB11D05C026E8230F7D
:1003E0000296A11DB11D209368018093690190932D
:1003F0006A01A0936B01B0936C0180916D019091A3
:100400006E01A0916F01B09170010196A11DB11D07
:1004100080936D0190936E01A0936F01B093700172
:10042000BF91AF919F918F913F912F910F900FBEF0
:100430000F901F9018950197009739F0880F991F1A
:10044000880F991F02970197F1F70895789484B562
:10045000826084BD84B5816084BD85B5826085BDC0
:1004600085B5816085BDEEE6F0E0808181608083A6
:10047000E1E8F0E010828081826080838081816089
:100480008083E0E8F0E0808181608083E1EBF0E050
:10049000808184608083E0EBF0E0808181608083F4
:1004A000EAE7F0E0808184608083808182608083DD
:1004B0008081816080838081806880831092C10008
:1004C00008950E9426020E948D00C0E0D0E00E94A4
:1004D00017012097E1F30E940000F9CFF894FFCFB5
:1004E000E8035000090008000044447C44444400F0
:1004F000007C407840407C000040404040407C0010
:100500000040404040407C000038444444443800AF
:10051000000000000000000000444444546C44000B
:10052000003844444444380000784444784444004B
:100530000040404040407C000078444444447800FF
:080540000000000000000000B3
:00000001FF
